:020000040800F2
:10000000600600206D0100087501000877010008F6
:10001000790100087B0100087D0100080000000054
:100020000000000000000000000000007F01000848
:10003000810100080000000083010008850100081C
:100040008701000887010008870100088701000870
:100050008701000887010008870100088701000860
:100060008701000887010008870100088701000850
:100070008701000887010008870100088701000840
:100080008701000887010008870100088701000830
:100090008701000887010008870100088701000820
:1000A000870100084D030008870100088701000848
:1000B0008701000887010008870100088701000800
:1000C00087010008870100088701000887010008F0
:1000D00087010008870100088701000887010008E0
:1000E00087010008870100088701000800F002F876
:1000F00000F02CF80AA090E8000C82448344AAF196
:100100000107DA4501D100F021F8AFF2090EBAE893
:100110000F0013F0010F18BFFB1A43F0010318473B
:10012000EC060000FC060000002300240025002649
:10013000103A28BF78C1FBD8520728BF30C148BF4A
:100140000B6070471FB51FBD10B510BD00F031F832
:100150001146FFF7F7FF00F01FF900F04FF803B466
:10016000FFF7F2FF03BC00F057F800000948804792
:1001700009480047FEE7FEE7FEE7FEE7FEE7FEE789
:10018000FEE7FEE7FEE7FEE704480549054A064BA1
:1001900070470000FD020008ED000008600000202C
:1001A0006006002060020020600200207047704757
:1001B0007047754600F02CF8AE4605006946534678
:1001C00020F00700854618B020B5FFF7DDFFBDE839
:1001D00020404FF000064FF000074FF000084FF0AE
:1001E000000B21F00701AC46ACE8C009ACE8C0093F
:1001F000ACE8C009ACE8C0098D46704710B50446AC
:10020000AFF300802046BDE81040FFF7A8BF000014
:10021000004870470000002001491820ABBEFEE7EF
:1002200026000200704710B5044602E0641C00F08E
:100230007FFA20780028F9D10A2000F079FABDE889
:1002400010400D2000F074BAAFF300800CB500220E
:10025000019200922748016841F4803101604FF417
:10026000A063016801F4003100910199491C0191DA
:10027000009911B901999942F3D10168890302D516
:100280000121009100E000920099012930D11A4922
:100290000A6842F010020A600A6822F003020A604B
:1002A0000A6842F002020A604168416041684160A8
:1002B000416841F480614160416821F47C114160F2
:1002C000416841F4E8114160016841F080710160CA
:1002D00001688901FCD5416821F003014160416852
:1002E00041F0020141604168C1F381010229FAD164
:1002F0000CBD0000001002400020024010B50F4865
:10030000016841F00101016041680D4A11404160FE
:1003100001680C4A11400160016821F480210160EC
:10032000416821F4FE0141604FF41F018160FFF735
:100330008BFF05494FF00060086010BD00100240BF
:100340000000FFF8FFFFF6FE08ED00E010B50848DA
:10035000016801F0FE0101608014064B821001115A
:100360001C1F1A60196022602160401EF9D110BD67
:10037000102C01401408014041F6E2514843401E50
:10038000411CFCD1704700EB8000FA2101EB4000DA
:10039000401E411CFCD1704708B500F055F822A062
:1003A000FFF741FF224F4FF47A794FF40058FE21B6
:1003B000C822084600F0DEF8F0214222084600F08C
:1003C000D9F80F21FF22084600F0D4F8C7F81080B2
:1003D0004846FFF7D1FF0F21084600F09FF804467A
:1003E0008DF80000FE21084600F098F88DF8010015
:1003F0000546F021084600F091F88DF80200064607
:10040000FF21084600F08AF88DF80300FF2CCED1BA
:10041000C82DCCD1422ECAD1C828C8D1C7F8148063
:1004200000F0B6F9FAE7000048454C4C4F210000B7
:100430000010014000210A2202E090FBF2F0491C6A
:100440000028FAD10846704710B52D48816940F65A
:100450001C0211438161C16941F00101C161294858
:10046000016801F47F6101600168274A114301605E
:10047000001D016801F07F41016001684FEA3232DE
:1004800011430160214801686FF30B0101600168AD
:100490001213114301601E48416821F4700141604C
:1004A000416841F4401141601A4844F24F610160D3
:1004B00018493220091D086016482838016841F0A3
:1004C0000101016014484FF0007101600F48C91329
:1004D0000C3001608115016041150160C820FFF7F3
:1004E0004BFF0024FFF732FF641CE4B2082CF9D361
:1004F00008481C38016841F00101016010BD00008E
:1005000000100240000C0140033033330408014066
:1005100000100140282C014000E100E0F0B5124A33
:1005200013684FF6FE7423401360104FC00038600C
:100530000F48961506603B1F1C684FF607052C40B8
:100540001C60C900396001150160001F0160066070
:1005500007480C380068C0B2196829401960116852
:1005600041F001011160F0BD0C2C0140100C014064
:10057000140801402DE9F0431E4B1C684FF6FE7530
:100580002C401C601C4E4FF033343460DFF86C900C
:10059000C000C9F80000184C4FF4807C1434C4F833
:1005A00000C0201F02604FF40078C4F80080A9F159
:1005B000040215684FF607073D401560C900C9F8E9
:1005C0000010011521600160C0F80080C0F800C073
:1005D0004FF08830306008480C30016801F47F41EA
:1005E0000160106838401060186840F00100186021
:1005F000BDE8F0830C2C014000080140100C0140C4
:1006000010B50446002305E02046FFF713FF241A27
:100610005B1CDBB2002CF7D123B13033D8B200F031
:1006200087F802E0302000F083F800203E4A514273
:1006300002E01444401CC0B28C42FAD220B13030E7
:10064000C0B200F075F802E0302000F071F8002030
:10065000364A514202E01444401CC0B28C42FAD2E5
:1006600020B13030C0B200F063F802E0302000F07A
:100670005FF8002042F2107104E0A4F51C54103C15
:10068000401CC0B28C42F8D220B13030C0B200F071
:100690004FF802E0302000F04BF800204FF47A7160
:1006A00003E0A4F57A74401CC0B28C42F9D220B1A8
:1006B0003030C0B200F03CF802E0302000F038F8F2
:1006C000002002E0643C401CC0B2642CFAD220B18D
:1006D0003030C0B200F02CF802E0302000F028F8F2
:1006E000002002E00A3C401CC0B20A2CFAD220B121
:1006F0003030C0B200F01CF802E0302000F018F8F2
:1007000014F0FF0004D03030C0B200F011F802E065
:10071000302000F00DF80A2000F00AF8BDE8104083
:100720000D2000F005B80000C0BDF0FF6079FEFFAD
:100730002DE9F0418046144D28684FF6FE710840BF
:1007400028600122114E012333606920FFF71BFE50
:10075000341FA7150CE018EA020F04D023606920AB
:10076000FFF711FE03E033606920FFF70CFE520033
:10077000BA42F0D123606920FFF705FE286840F0F7
:1007800001002860BDE8F0810C2C0140140C0140F0
:100790002DE9F04119A0FFF746FD002600270025AE
:1007A00040F2FF780024E2B221462846FFF7E2FE3D
:1007B00021462846FFF7B2FEA04201D17F1C00E08F
:1007C000761C641CFF2CEEDD6D1C4545EADB0CA09D
:1007D000FFF729FD0BA0FFF726FD3846FFF710FFB6
:1007E00009A0FFF720FD3046FFF70AFF42F2107024
:1007F000FFF7C2FD0020BDE8F08100005452000068
:10080000545246004F000000460000001C0800083B
:0C08100000000020600600002801000825
:040000050800016D81
:00000001FF
